{
  "_format": "hh-sol-artifact-1",
  "contractName": "Transaction",
  "sourceName": "contracts/Transaction.sol",
  "abi": [
    {
      "anonymous": false,
      "inputs": [
        {
          "indexed": false,
          "internalType": "address",
          "name": "from",
          "type": "address"
        },
        {
          "indexed": false,
          "internalType": "address",
          "name": "receiver",
          "type": "address"
        },
        {
          "indexed": false,
          "internalType": "uint256",
          "name": "amount",
          "type": "uint256"
        },
        {
          "indexed": false,
          "internalType": "string",
          "name": "message",
          "type": "string"
        },
        {
          "indexed": false,
          "internalType": "uint256",
          "name": "timestamp",
          "type": "uint256"
        }
      ],
      "name": "Transfer",
      "type": "event"
    },
    {
      "inputs": [
        {
          "internalType": "address payable",
          "name": "receiver",
          "type": "address"
        },
        {
          "internalType": "uint256",
          "name": "amount",
          "type": "uint256"
        },
        {
          "internalType": "string",
          "name": "message",
          "type": "string"
        }
      ],
      "name": "makeTxn",
      "outputs": [],
      "stateMutability": "nonpayable",
      "type": "function"
    }
  ],
  "bytecode": "0x608060405234801561001057600080fd5b50610673806100206000396000f3fe608060405234801561001057600080fd5b506004361061002b5760003560e01c8063b645fa6214610030575b600080fd5b61004a60048036038101906100459190610304565b61004c565b005b60016040518060a001604052803373ffffffffffffffffffffffffffffffffffffffff1681526020018573ffffffffffffffffffffffffffffffffffffffff16815260200184815260200183815260200142815250908060018154018082558091505060019003906000526020600020906005020160009091909190915060008201518160000160006101000a81548173ffffffffffffffffffffffffffffffffffffffff021916908373ffffffffffffffffffffffffffffffffffffffff16021790555060208201518160010160006101000a81548173ffffffffffffffffffffffffffffffffffffffff021916908373ffffffffffffffffffffffffffffffffffffffff16021790555060408201518160020155606082015181600301908051906020019061017e9291906101cf565b506080820151816004015550507fc4b32d7ff75a51e487f3cbb5d3202f2efecca1f4c2b987e0039c1d3220b48a8333848484426040516101c29594939291906103d1565b60405180910390a1505050565b8280546101db9061056e565b90600052602060002090601f0160209004810192826101fd5760008555610244565b82601f1061021657805160ff1916838001178555610244565b82800160010185558215610244579182015b82811115610243578251825591602001919060010190610228565b5b5090506102519190610255565b5090565b5b8082111561026e576000816000905550600101610256565b5090565b60006102856102808461045c565b61042b565b90508281526020810184848401111561029d57600080fd5b6102a884828561052c565b509392505050565b6000813590506102bf8161060f565b92915050565b600082601f8301126102d657600080fd5b81356102e6848260208601610272565b91505092915050565b6000813590506102fe81610626565b92915050565b60008060006060848603121561031957600080fd5b6000610327868287016102b0565b9350506020610338868287016102ef565b925050604084013567ffffffffffffffff81111561035557600080fd5b610361868287016102c5565b9150509250925092565b610374816104f6565b82525050565b610383816104a8565b82525050565b60006103948261048c565b61039e8185610497565b93506103ae81856020860161053b565b6103b7816105fe565b840191505092915050565b6103cb816104ec565b82525050565b600060a0820190506103e6600083018861037a565b6103f3602083018761036b565b61040060408301866103c2565b81810360608301526104128185610389565b905061042160808301846103c2565b9695505050505050565b6000604051905081810181811067ffffffffffffffff82111715610452576104516105cf565b5b8060405250919050565b600067ffffffffffffffff821115610477576104766105cf565b5b601f19601f8301169050602081019050919050565b600081519050919050565b600082825260208201905092915050565b60006104b3826104cc565b9050919050565b60006104c5826104cc565b9050919050565b600073ffffffffffffffffffffffffffffffffffffffff82169050919050565b6000819050919050565b600061050182610508565b9050919050565b60006105138261051a565b9050919050565b6000610525826104cc565b9050919050565b82818337600083830152505050565b60005b8381101561055957808201518184015260208101905061053e565b83811115610568576000848401525b50505050565b6000600282049050600182168061058657607f821691505b6020821081141561059a576105996105a0565b5b50919050565b7f4e487b7100000000000000000000000000000000000000000000000000000000600052602260045260246000fd5b7f4e487b7100000000000000000000000000000000000000000000000000000000600052604160045260246000fd5b6000601f19601f8301169050919050565b610618816104ba565b811461062357600080fd5b50565b61062f816104ec565b811461063a57600080fd5b5056fea264697066735822122008cd62a9e5d9e1e8a652a3e52d2e7b9f1c70df75ecfe7a6eff948b3629fac69164736f6c63430008000033",
  "linkReferences": {},
  "deployedLinkReferences": {}
}